Component: ARM Compiler 5.06 update 6 (build 750) Tool: armlink [4d35ed]

==============================================================================

Section Cross References

    main.o(.text) refers to stm32f10x_rcc.o(.text) for RCC_APB2PeriphClockCmd
    main.o(.text) refers to stm32f10x_gpio.o(.text) for GPIO_Init
    main.o(.text) refers to gui.o(.text) for GUI_ShowCHinese
    main.o(.text) refers to aht20-21_demo_v1_3.o(.text) for AHT20_Read_CTdata
    main.o(.text) refers to delay.o(.text) for delay_init
    main.o(.text) refers to oled.o(.text) for OLED_Init
    main.o(.text) refers to main.o(.bss) for temp
    main.o(.text) refers to main.o(.data) for CT_data
    system_stm32f10x.o(.text) refers to system_stm32f10x.o(.data) for SystemCoreClock
    gui.o(.text) refers to oled.o(.text) for OLED_Set_Pixel
    gui.o(.text) refers to gui.o(.constdata) for F8X16
    test.o(.text) refers to gui.o(.text) for GUI_ShowCHinese
    test.o(.text) refers to delay.o(.text) for delay_ms
    test.o(.text) refers to oled.o(.text) for OLED_Clear
    test.o(.text) refers to test.o(.data) for BMP2
    test.o(.text) refers to rand.o(.text) for srand
    oled.o(.text) refers to stm32f10x_gpio.o(.text) for GPIO_SetBits
    oled.o(.text) refers to spi.o(.text) for SPI_WriteByte
==============================================================================

Removing Unused input sections from the image.

    Removing test.o(.text), (2440 bytes).
    Removing test.o(.data), (3296 bytes).
    Removing sys.o(.emb_text), (6 bytes).
    Removing sys.o(.text), (12 bytes).
    Removing core_cm3.o(.emb_text), (32 bytes).
    Removing startup_stm32f10x_hd.o(HEAP), (512 bytes).

6 unused section(s) (total 6298 bytes) removed from the image.

==============================================================================

Image Symbol Table

    Local Symbols

    Symbol Name                              Value     Ov Type        Size  Object(Section)

    ../clib/microlib/init/entry.s            0x00000000   Number         0  entry10b.o ABSOLUTE
    ../clib/microlib/init/entry.s            0x00000000   Number         0  entry.o ABSOLUTE
    ../clib/microlib/init/entry.s            0x00000000   Number         0  entry11b.o ABSOLUTE
    ../clib/microlib/init/entry.s            0x00000000   Number         0  entry11a.o ABSOLUTE
    ../clib/microlib/init/entry.s            0x00000000   Number         0  entry10a.o ABSOLUTE
    ../clib/microlib/init/entry.s            0x00000000   Number         0  entry9b.o ABSOLUTE
    ../clib/microlib/init/entry.s            0x00000000   Number         0  entry9a.o ABSOLUTE
    ../clib/microlib/init/entry.s            0x00000000   Number         0  entry8b.o ABSOLUTE
    ../clib/microlib/init/entry.s            0x00000000   Number         0  entry8a.o ABSOLUTE
    ../clib/microlib/init/entry.s            0x00000000   Number         0  entry2.o ABSOLUTE
    ../clib/microlib/init/entry.s            0x00000000   Number         0  entry7b.o ABSOLUTE
    ../clib/microlib/init/entry.s            0x00000000   Number         0  entry5.o ABSOLUTE
    ../clib/microlib/init/entry.s            0x00000000   Number         0  entry7a.o ABSOLUTE
    ../clib/microlib/stdlib/rand.c           0x00000000   Number         0  rand.o ABSOLUTE
    ../clib/microlib/string/memset.c         0x00000000   Number         0  memseta.o ABSOLUTE
    ..\CORE\core_cm3.c                       0x00000000   Number         0  core_cm3.o ABSOLUTE
    ..\CORE\startup_stm32f10x_hd.s           0x00000000   Number         0  startup_stm32f10x_hd.o ABSOLUTE
    ..\HARDWARE\AHT20-21 DEMO V1_3\AHT20-21_DEMO_V1_3.c 0x00000000   Number         0  aht20-21_demo_v1_3.o ABSOLUTE
    ..\HARDWARE\OLED\oled.c                  0x00000000   Number         0  oled.o ABSOLUTE
    ..\HARDWARE\SPI\spi.c                    0x00000000   Number         0  spi.o ABSOLUTE
    ..\STM32F10x_FWLib\src\misc.c            0x00000000   Number         0  misc.o ABSOLUTE
    ..\STM32F10x_FWLib\src\stm32f10x_gpio.c  0x00000000   Number         0  stm32f10x_gpio.o ABSOLUTE
    ..\STM32F10x_FWLib\src\stm32f10x_rcc.c   0x00000000   Number         0  stm32f10x_rcc.o ABSOLUTE
    ..\STM32F10x_FWLib\src\stm32f10x_spi.c   0x00000000   Number         0  stm32f10x_spi.o ABSOLUTE
    ..\SYSTEM\delay\delay.c                  0x00000000   Number         0  delay.o ABSOLUTE
    ..\SYSTEM\sys\sys.c                      0x00000000   Number         0  sys.o ABSOLUTE
    ..\USER\gui.c                            0x00000000   Number         0  gui.o ABSOLUTE
    ..\USER\main.c                           0x00000000   Number         0  main.o ABSOLUTE
    ..\USER\stm32f10x_it.c                   0x00000000   Number         0  stm32f10x_it.o ABSOLUTE
    ..\USER\system_stm32f10x.c               0x00000000   Number         0  system_stm32f10x.o ABSOLUTE
    ..\USER\test.c                           0x00000000   Number         0  test.o ABSOLUTE
    ..\\CORE\\core_cm3.c                     0x00000000   Number         0  core_cm3.o ABSOLUTE
    ..\\SYSTEM\\sys\\sys.c                   0x00000000   Number         0  sys.o ABSOLUTE
    dc.s                                     0x00000000   Number         0  dc.o ABSOLUTE
    handlers.s                               0x00000000   Number         0  handlers.o ABSOLUTE
    init.s                                   0x00000000   Number         0  init.o ABSOLUTE
    RESET                                    0x08000000   Section      304  startup_stm32f10x_hd.o(RESET)
    .ARM.Collect$$$$00000000                 0x08000130   Section        0  entry.o(.ARM.Collect$$$$00000000)
    .ARM.Collect$$$$00000001                 0x08000130   Section        4  entry2.o(.ARM.Collect$$$$00000001)
    .ARM.Collect$$$$00000004                 0x08000134   Section        4  entry5.o(.ARM.Collect$$$$00000004)
    .ARM.Collect$$$$00000008                 0x08000138   Section        0  entry7b.o(.ARM.Collect$$$$00000008)
    .ARM.Collect$$$$0000000A                 0x08000138   Section        0  entry8b.o(.ARM.Collect$$$$0000000A)
    .ARM.Collect$$$$0000000B                 0x08000138   Section        8  entry9a.o(.ARM.Collect$$$$0000000B)
    .ARM.Collect$$$$0000000D                 0x08000140   Section        0  entry10a.o(.ARM.Collect$$$$0000000D)
    .ARM.Collect$$$$0000000F                 0x08000140   Section        0  entry11a.o(.ARM.Collect$$$$0000000F)
    .ARM.Collect$$$$00002712                 0x08000140   Section        4  entry2.o(.ARM.Collect$$$$00002712)
    __lit__00000000                          0x08000140   Data           4  entry2.o(.ARM.Collect$$$$00002712)
    .text                                    0x08000144   Section        0  main.o(.text)
    .text                                    0x080003e0   Section        0  stm32f10x_it.o(.text)
    .text                                    0x080003fc   Section        0  system_stm32f10x.o(.text)
    SetSysClockTo72                          0x080003fd   Thumb Code   214  system_stm32f10x.o(.text)
    SetSysClock                              0x080004d3   Thumb Code     8  system_stm32f10x.o(.text)
    .text                                    0x080005dc   Section        0  gui.o(.text)
    _draw_circle_8                           0x08000761   Thumb Code   132  gui.o(.text)
    _swap                                    0x080008d7   Thumb Code    10  gui.o(.text)
    _draw_h_line                             0x080008e1   Thumb Code    40  gui.o(.text)
    mypow                                    0x08000c79   Thumb Code    22  gui.o(.text)
    .text                                    0x08001144   Section        0  oled.o(.text)
    .text                                    0x0800141c   Section        0  spi.o(.text)
    .text                                    0x08001504   Section        0  aht20-21_demo_v1_3.o(.text)
    .text                                    0x08001bc4   Section        0  delay.o(.text)
    .text                                    0x08001c98   Section       36  startup_stm32f10x_hd.o(.text)
    .text                                    0x08001cbc   Section        0  misc.o(.text)
    .text                                    0x08001d98   Section        0  stm32f10x_gpio.o(.text)
    .text                                    0x080020f4   Section        0  stm32f10x_rcc.o(.text)
    .text                                    0x08002498   Section        0  stm32f10x_spi.o(.text)
    .text                                    0x080027a4   Section        0  memseta.o(.text)
    .text                                    0x080027c8   Section       36  init.o(.text)
    i.__scatterload_copy                     0x080027ec   Section       14  handlers.o(i.__scatterload_copy)
    i.__scatterload_null                     0x080027fa   Section        2  handlers.o(i.__scatterload_null)
    i.__scatterload_zeroinit                 0x080027fc   Section       14  handlers.o(i.__scatterload_zeroinit)
    .constdata                               0x0800280a   Section     4728  gui.o(.constdata)
    .data                                    0x20000000   Section       16  main.o(.data)
    .data                                    0x20000010   Section       20  system_stm32f10x.o(.data)
    .data                                    0x20000024   Section        4  delay.o(.data)
    fac_us                                   0x20000024   Data           1  delay.o(.data)
    fac_ms                                   0x20000026   Data           2  delay.o(.data)
    .data                                    0x20000028   Section       20  stm32f10x_rcc.o(.data)
    APBAHBPrescTable                         0x20000028   Data          16  stm32f10x_rcc.o(.data)
    ADCPrescTable                            0x20000038   Data           4  stm32f10x_rcc.o(.data)
    .bss                                     0x2000003c   Section       20  main.o(.bss)
    .bss                                     0x20000050   Section     1024  oled.o(.bss)
    OLED_buffer                              0x20000050   Data        1024  oled.o(.bss)
    STACK                                    0x20000450   Section     1024  startup_stm32f10x_hd.o(STACK)

    Global Symbols

    Symbol Name                              Value     Ov Type        Size  Object(Section)

    BuildAttributes$$THM_ISAv4$P$D$K$B$S$PE$A:L22UL41UL21$X:L11$S22US41US21$IEEE1$IW$USESV6$~STKCKD$USESV7$~SHL$OSPACE$EBA8$MICROLIB$REQ8$PRES8$EABIv2 0x00000000   Number         0  anon$$obj.o ABSOLUTE
    __ARM_use_no_argv                        0x00000000   Number         0  main.o ABSOLUTE
    __cpp_initialize__aeabi_                  - Undefined Weak Reference
    __cxa_finalize                            - Undefined Weak Reference
    __decompress                              - Undefined Weak Reference
    _clock_init                               - Undefined Weak Reference
    _microlib_exit                            - Undefined Weak Reference
    __Vectors_Size                           0x00000130   Number         0  startup_stm32f10x_hd.o ABSOLUTE
    __Vectors                                0x08000000   Data           4  startup_stm32f10x_hd.o(RESET)
    __Vectors_End                            0x08000130   Data           0  startup_stm32f10x_hd.o(RESET)
    __main                                   0x08000131   Thumb Code     0  entry.o(.ARM.Collect$$$$00000000)
    _main_stk                                0x08000131   Thumb Code     0  entry2.o(.ARM.Collect$$$$00000001)
    _main_scatterload                        0x08000135   Thumb Code     0  entry5.o(.ARM.Collect$$$$00000004)
    __main_after_scatterload                 0x08000139   Thumb Code     0  entry5.o(.ARM.Collect$$$$00000004)
    _main_clock                              0x08000139   Thumb Code     0  entry7b.o(.ARM.Collect$$$$00000008)
    _main_cpp_init                           0x08000139   Thumb Code     0  entry8b.o(.ARM.Collect$$$$0000000A)
    _main_init                               0x08000139   Thumb Code     0  entry9a.o(.ARM.Collect$$$$0000000B)
    __rt_final_cpp                           0x08000141   Thumb Code     0  entry10a.o(.ARM.Collect$$$$0000000D)
    __rt_final_exit                          0x08000141   Thumb Code     0  entry11a.o(.ARM.Collect$$$$0000000F)
    GPIOC13_Init                             0x08000145   Thumb Code    50  main.o(.text)
    showData                                 0x08000177   Thumb Code   116  main.o(.text)
    getData                                  0x080001eb   Thumb Code   190  main.o(.text)
    Init                                     0x080002a9   Thumb Code   176  main.o(.text)
    main                                     0x08000359   Thumb Code    32  main.o(.text)
    NMI_Handler                              0x080003e1   Thumb Code     2  stm32f10x_it.o(.text)
    HardFault_Handler                        0x080003e3   Thumb Code     4  stm32f10x_it.o(.text)
    MemManage_Handler                        0x080003e7   Thumb Code     4  stm32f10x_it.o(.text)
    BusFault_Handler                         0x080003eb   Thumb Code     4  stm32f10x_it.o(.text)
    UsageFault_Handler                       0x080003ef   Thumb Code     4  stm32f10x_it.o(.text)
    SVC_Handler                              0x080003f3   Thumb Code     2  stm32f10x_it.o(.text)
    DebugMon_Handler                         0x080003f5   Thumb Code     2  stm32f10x_it.o(.text)
    PendSV_Handler                           0x080003f7   Thumb Code     2  stm32f10x_it.o(.text)
    SysTick_Handler                          0x080003f9   Thumb Code     2  stm32f10x_it.o(.text)
    SystemInit                               0x080004db   Thumb Code    78  system_stm32f10x.o(.text)
    SystemCoreClockUpdate                    0x08000529   Thumb Code   142  system_stm32f10x.o(.text)
    GUI_DrawPoint                            0x080005dd   Thumb Code    24  gui.o(.text)
    GUI_Fill                                 0x080005f5   Thumb Code    78  gui.o(.text)
    GUI_DrawLine                             0x08000643   Thumb Code   176  gui.o(.text)
    GUI_DrawRectangle                        0x080006f3   Thumb Code    74  gui.o(.text)
    GUI_FillRectangle                        0x0800073d   Thumb Code    36  gui.o(.text)
    GUI_DrawCircle                           0x080007e5   Thumb Code    82  gui.o(.text)
    GUI_FillCircle                           0x08000837   Thumb Code    96  gui.o(.text)
    GUI_DrawTriangel                         0x08000897   Thumb Code    64  gui.o(.text)
    GUI_FillTriangel                         0x08000909   Thumb Code   508  gui.o(.text)
    GUI_ShowChar                             0x08000b05   Thumb Code   262  gui.o(.text)
    GUI_ShowString                           0x08000c0b   Thumb Code   110  gui.o(.text)
    GUI_ShowNum                              0x08000c8f   Thumb Code   170  gui.o(.text)
    GUI_ShowFont16                           0x08000d39   Thumb Code   236  gui.o(.text)
    GUI_ShowFont24                           0x08000e25   Thumb Code   272  gui.o(.text)
    GUI_ShowFont32                           0x08000f35   Thumb Code   244  gui.o(.text)
    GUI_ShowCHinese                          0x08001029   Thumb Code   106  gui.o(.text)
    GUI_DrawBMP                              0x08001093   Thumb Code   172  gui.o(.text)
    OLED_WR_Byte                             0x08001145   Thumb Code    60  oled.o(.text)
    OLED_Set_Pos                             0x08001181   Thumb Code    56  oled.o(.text)
    OLED_Display_On                          0x080011b9   Thumb Code    28  oled.o(.text)
    OLED_Display_Off                         0x080011d5   Thumb Code    28  oled.o(.text)
    OLED_Set_Pixel                           0x080011f1   Thumb Code   122  oled.o(.text)
    OLED_Display                             0x0800126b   Thumb Code    68  oled.o(.text)
    OLED_Clear                               0x080012af   Thumb Code    36  oled.o(.text)
    OLED_Reset                               0x080012d3   Thumb Code    46  oled.o(.text)
    OLED_Init_GPIO                           0x08001301   Thumb Code    50  oled.o(.text)
    OLED_Init                                0x08001333   Thumb Code   222  oled.o(.text)
    SPI_WriteByte                            0x0800141d   Thumb Code    34  spi.o(.text)
    SPI_SetSpeed                             0x0800143f   Thumb Code    38  spi.o(.text)
    SPI2_Init                                0x08001465   Thumb Code   150  spi.o(.text)
    Delay_N10us                              0x08001505   Thumb Code    24  aht20-21_demo_v1_3.o(.text)
    SensorDelay_us                           0x0800151d   Thumb Code    22  aht20-21_demo_v1_3.o(.text)
    Delay_4us                                0x08001533   Thumb Code    28  aht20-21_demo_v1_3.o(.text)
    Delay_5us                                0x0800154f   Thumb Code    34  aht20-21_demo_v1_3.o(.text)
    Delay_1ms                                0x08001571   Thumb Code    24  aht20-21_demo_v1_3.o(.text)
    SDA_Pin_Output_High                      0x08001589   Thumb Code    38  aht20-21_demo_v1_3.o(.text)
    SDA_Pin_Output_Low                       0x080015af   Thumb Code    38  aht20-21_demo_v1_3.o(.text)
    SDA_Pin_IN_FLOATING                      0x080015d5   Thumb Code    30  aht20-21_demo_v1_3.o(.text)
    SCL_Pin_Output_High                      0x080015f3   Thumb Code    12  aht20-21_demo_v1_3.o(.text)
    SCL_Pin_Output_Low                       0x080015ff   Thumb Code    12  aht20-21_demo_v1_3.o(.text)
    Init_I2C_Sensor_Port                     0x0800160b   Thumb Code    76  aht20-21_demo_v1_3.o(.text)
    I2C_Start                                0x08001657   Thumb Code    44  aht20-21_demo_v1_3.o(.text)
    AHT20_WR_Byte                            0x08001683   Thumb Code    82  aht20-21_demo_v1_3.o(.text)
    AHT20_RD_Byte                            0x080016d5   Thumb Code    80  aht20-21_demo_v1_3.o(.text)
    Receive_ACK                              0x08001725   Thumb Code    70  aht20-21_demo_v1_3.o(.text)
    Send_ACK                                 0x0800176b   Thumb Code    54  aht20-21_demo_v1_3.o(.text)
    Send_NOT_ACK                             0x080017a1   Thumb Code    54  aht20-21_demo_v1_3.o(.text)
    Stop_I2C                                 0x080017d7   Thumb Code    34  aht20-21_demo_v1_3.o(.text)
    AHT20_Read_Status                        0x080017f9   Thumb Code    34  aht20-21_demo_v1_3.o(.text)
    AHT20_Read_Cal_Enable                    0x0800181b   Thumb Code    26  aht20-21_demo_v1_3.o(.text)
    AHT20_SendAC                             0x08001835   Thumb Code    52  aht20-21_demo_v1_3.o(.text)
    Calc_CRC8                                0x08001869   Thumb Code    58  aht20-21_demo_v1_3.o(.text)
    AHT20_Read_CTdata                        0x080018a3   Thumb Code   210  aht20-21_demo_v1_3.o(.text)
    AHT20_Read_CTdata_crc                    0x08001975   Thumb Code   280  aht20-21_demo_v1_3.o(.text)
    AHT20_Init                               0x08001a8d   Thumb Code   116  aht20-21_demo_v1_3.o(.text)
    JH_Reset_REG                             0x08001b01   Thumb Code   172  aht20-21_demo_v1_3.o(.text)
    AHT20_Start_Init                         0x08001bad   Thumb Code    22  aht20-21_demo_v1_3.o(.text)
    delay_init                               0x08001bc5   Thumb Code    50  delay.o(.text)
    delay_us                                 0x08001bf7   Thumb Code    72  delay.o(.text)
    delay_ms                                 0x08001c3f   Thumb Code    72  delay.o(.text)
    Reset_Handler                            0x08001c99   Thumb Code     8  startup_stm32f10x_hd.o(.text)
    ADC1_2_IRQHandler                        0x08001cb3   Thumb Code     0  startup_stm32f10x_hd.o(.text)
    ADC3_IRQHandler                          0x08001cb3   Thumb Code     0  startup_stm32f10x_hd.o(.text)
    CAN1_RX1_IRQHandler                      0x08001cb3   Thumb Code     0  startup_stm32f10x_hd.o(.text)
    CAN1_SCE_IRQHandler                      0x08001cb3   Thumb Code     0  startup_stm32f10x_hd.o(.text)
    DMA1_Channel1_IRQHandler                 0x08001cb3   Thumb Code     0  startup_stm32f10x_hd.o(.text)
    DMA1_Channel2_IRQHandler                 0x08001cb3   Thumb Code     0  startup_stm32f10x_hd.o(.text)
    DMA1_Channel3_IRQHandler                 0x08001cb3   Thumb Code     0  startup_stm32f10x_hd.o(.text)
    DMA1_Channel4_IRQHandler                 0x08001cb3   Thumb Code     0  startup_stm32f10x_hd.o(.text)
    DMA1_Channel5_IRQHandler                 0x08001cb3   Thumb Code     0  startup_stm32f10x_hd.o(.text)
    DMA1_Channel6_IRQHandler                 0x08001cb3   Thumb Code     0  startup_stm32f10x_hd.o(.text)
    DMA1_Channel7_IRQHandler                 0x08001cb3   Thumb Code     0  startup_stm32f10x_hd.o(.text)
    DMA2_Channel1_IRQHandler                 0x08001cb3   Thumb Code     0  startup_stm32f10x_hd.o(.text)
    DMA2_Channel2_IRQHandler                 0x08001cb3   Thumb Code     0  startup_stm32f10x_hd.o(.text)
    DMA2_Channel3_IRQHandler                 0x08001cb3   Thumb Code     0  startup_stm32f10x_hd.o(.text)
    DMA2_Channel4_5_IRQHandler               0x08001cb3   Thumb Code     0  startup_stm32f10x_hd.o(.text)
    EXTI0_IRQHandler                         0x08001cb3   Thumb Code     0  startup_stm32f10x_hd.o(.text)
    EXTI15_10_IRQHandler                     0x08001cb3   Thumb Code     0  startup_stm32f10x_hd.o(.text)
    EXTI1_IRQHandler                         0x08001cb3   Thumb Code     0  startup_stm32f10x_hd.o(.text)
    EXTI2_IRQHandler                         0x08001cb3   Thumb Code     0  startup_stm32f10x_hd.o(.text)
    EXTI3_IRQHandler                         0x08001cb3   Thumb Code     0  startup_stm32f10x_hd.o(.text)
    EXTI4_IRQHandler                         0x08001cb3   Thumb Code     0  startup_stm32f10x_hd.o(.text)
    EXTI9_5_IRQHandler                       0x08001cb3   Thumb Code     0  startup_stm32f10x_hd.o(.text)
    FLASH_IRQHandler                         0x08001cb3   Thumb Code     0  startup_stm32f10x_hd.o(.text)
    FSMC_IRQHandler                          0x08001cb3   Thumb Code     0  startup_stm32f10x_hd.o(.text)
    I2C1_ER_IRQHandler                       0x08001cb3   Thumb Code     0  startup_stm32f10x_hd.o(.text)
    I2C1_EV_IRQHandler                       0x08001cb3   Thumb Code     0  startup_stm32f10x_hd.o(.text)
    I2C2_ER_IRQHandler                       0x08001cb3   Thumb Code     0  startup_stm32f10x_hd.o(.text)
    I2C2_EV_IRQHandler                       0x08001cb3   Thumb Code     0  startup_stm32f10x_hd.o(.text)
    PVD_IRQHandler                           0x08001cb3   Thumb Code     0  startup_stm32f10x_hd.o(.text)
    RCC_IRQHandler                           0x08001cb3   Thumb Code     0  startup_stm32f10x_hd.o(.text)
    RTCAlarm_IRQHandler                      0x08001cb3   Thumb Code     0  startup_stm32f10x_hd.o(.text)
    RTC_IRQHandler                           0x08001cb3   Thumb Code     0  startup_stm32f10x_hd.o(.text)
    SDIO_IRQHandler                          0x08001cb3   Thumb Code     0  startup_stm32f10x_hd.o(.text)
    SPI1_IRQHandler                          0x08001cb3   Thumb Code     0  startup_stm32f10x_hd.o(.text)
    SPI2_IRQHandler                          0x08001cb3   Thumb Code     0  startup_stm32f10x_hd.o(.text)
    SPI3_IRQHandler                          0x08001cb3   Thumb Code     0  startup_stm32f10x_hd.o(.text)
    TAMPER_IRQHandler                        0x08001cb3   Thumb Code     0  startup_stm32f10x_hd.o(.text)
    TIM1_BRK_IRQHandler                      0x08001cb3   Thumb Code     0  startup_stm32f10x_hd.o(.text)
    TIM1_CC_IRQHandler                       0x08001cb3   Thumb Code     0  startup_stm32f10x_hd.o(.text)
    TIM1_TRG_COM_IRQHandler                  0x08001cb3   Thumb Code     0  startup_stm32f10x_hd.o(.text)
    TIM1_UP_IRQHandler                       0x08001cb3   Thumb Code     0  startup_stm32f10x_hd.o(.text)
    TIM2_IRQHandler                          0x08001cb3   Thumb Code     0  startup_stm32f10x_hd.o(.text)
    TIM3_IRQHandler                          0x08001cb3   Thumb Code     0  startup_stm32f10x_hd.o(.text)
    TIM4_IRQHandler                          0x08001cb3   Thumb Code     0  startup_stm32f10x_hd.o(.text)
    TIM5_IRQHandler                          0x08001cb3   Thumb Code     0  startup_stm32f10x_hd.o(.text)
    TIM6_IRQHandler                          0x08001cb3   Thumb Code     0  startup_stm32f10x_hd.o(.text)
    TIM7_IRQHandler                          0x08001cb3   Thumb Code     0  startup_stm32f10x_hd.o(.text)
    TIM8_BRK_IRQHandler                      0x08001cb3   Thumb Code     0  startup_stm32f10x_hd.o(.text)
    TIM8_CC_IRQHandler                       0x08001cb3   Thumb Code     0  startup_stm32f10x_hd.o(.text)
    TIM8_TRG_COM_IRQHandler                  0x08001cb3   Thumb Code     0  startup_stm32f10x_hd.o(.text)
    TIM8_UP_IRQHandler                       0x08001cb3   Thumb Code     0  startup_stm32f10x_hd.o(.text)
    UART4_IRQHandler                         0x08001cb3   Thumb Code     0  startup_stm32f10x_hd.o(.text)
    UART5_IRQHandler                         0x08001cb3   Thumb Code     0  startup_stm32f10x_hd.o(.text)
    USART1_IRQHandler                        0x08001cb3   Thumb Code     0  startup_stm32f10x_hd.o(.text)
    USART2_IRQHandler                        0x08001cb3   Thumb Code     0  startup_stm32f10x_hd.o(.text)
    USART3_IRQHandler                        0x08001cb3   Thumb Code     0  startup_stm32f10x_hd.o(.text)
    USBWakeUp_IRQHandler                     0x08001cb3   Thumb Code     0  startup_stm32f10x_hd.o(.text)
    USB_HP_CAN1_TX_IRQHandler                0x08001cb3   Thumb Code     0  startup_stm32f10x_hd.o(.text)
    USB_LP_CAN1_RX0_IRQHandler               0x08001cb3   Thumb Code     0  startup_stm32f10x_hd.o(.text)
    WWDG_IRQHandler                          0x08001cb3   Thumb Code     0  startup_stm32f10x_hd.o(.text)
    NVIC_PriorityGroupConfig                 0x08001cbd   Thumb Code    10  misc.o(.text)
    NVIC_Init                                0x08001cc7   Thumb Code   100  misc.o(.text)
    NVIC_SetVectorTable                      0x08001d2b   Thumb Code    14  misc.o(.text)
    NVIC_SystemLPConfig                      0x08001d39   Thumb Code    34  misc.o(.text)
    SysTick_CLKSourceConfig                  0x08001d5b   Thumb Code    40  misc.o(.text)
    GPIO_DeInit                              0x08001d99   Thumb Code   172  stm32f10x_gpio.o(.text)
    GPIO_AFIODeInit                          0x08001e45   Thumb Code    20  stm32f10x_gpio.o(.text)
    GPIO_Init                                0x08001e59   Thumb Code   278  stm32f10x_gpio.o(.text)
    GPIO_StructInit                          0x08001f6f   Thumb Code    16  stm32f10x_gpio.o(.text)
    GPIO_ReadInputDataBit                    0x08001f7f   Thumb Code    18  stm32f10x_gpio.o(.text)
    GPIO_ReadInputData                       0x08001f91   Thumb Code     8  stm32f10x_gpio.o(.text)
    GPIO_ReadOutputDataBit                   0x08001f99   Thumb Code    18  stm32f10x_gpio.o(.text)
    GPIO_ReadOutputData                      0x08001fab   Thumb Code     8  stm32f10x_gpio.o(.text)
    GPIO_SetBits                             0x08001fb3   Thumb Code     4  stm32f10x_gpio.o(.text)
    GPIO_ResetBits                           0x08001fb7   Thumb Code     4  stm32f10x_gpio.o(.text)
    GPIO_WriteBit                            0x08001fbb   Thumb Code    10  stm32f10x_gpio.o(.text)
    GPIO_Write                               0x08001fc5   Thumb Code     4  stm32f10x_gpio.o(.text)
    GPIO_PinLockConfig                       0x08001fc9   Thumb Code    18  stm32f10x_gpio.o(.text)
    GPIO_EventOutputConfig                   0x08001fdb   Thumb Code    26  stm32f10x_gpio.o(.text)
    GPIO_EventOutputCmd                      0x08001ff5   Thumb Code     6  stm32f10x_gpio.o(.text)
    GPIO_PinRemapConfig                      0x08001ffb   Thumb Code   138  stm32f10x_gpio.o(.text)
    GPIO_EXTILineConfig                      0x08002085   Thumb Code    66  stm32f10x_gpio.o(.text)
    GPIO_ETH_MediaInterfaceConfig            0x080020c7   Thumb Code     8  stm32f10x_gpio.o(.text)
    RCC_DeInit                               0x080020f5   Thumb Code    64  stm32f10x_rcc.o(.text)
    RCC_HSEConfig                            0x08002135   Thumb Code    70  stm32f10x_rcc.o(.text)
    RCC_GetFlagStatus                        0x0800217b   Thumb Code    56  stm32f10x_rcc.o(.text)
    RCC_WaitForHSEStartUp                    0x080021b3   Thumb Code    56  stm32f10x_rcc.o(.text)
    RCC_AdjustHSICalibrationValue            0x080021eb   Thumb Code    20  stm32f10x_rcc.o(.text)
    RCC_HSICmd                               0x080021ff   Thumb Code     6  stm32f10x_rcc.o(.text)
    RCC_PLLConfig                            0x08002205   Thumb Code    24  stm32f10x_rcc.o(.text)
    RCC_PLLCmd                               0x0800221d   Thumb Code     6  stm32f10x_rcc.o(.text)
    RCC_SYSCLKConfig                         0x08002223   Thumb Code    18  stm32f10x_rcc.o(.text)
    RCC_GetSYSCLKSource                      0x08002235   Thumb Code    10  stm32f10x_rcc.o(.text)
    RCC_HCLKConfig                           0x0800223f   Thumb Code    18  stm32f10x_rcc.o(.text)
    RCC_PCLK1Config                          0x08002251   Thumb Code    18  stm32f10x_rcc.o(.text)
    RCC_PCLK2Config                          0x08002263   Thumb Code    20  stm32f10x_rcc.o(.text)
    RCC_ITConfig                             0x08002277   Thumb Code    26  stm32f10x_rcc.o(.text)
    RCC_USBCLKConfig                         0x08002291   Thumb Code     8  stm32f10x_rcc.o(.text)
    RCC_ADCCLKConfig                         0x08002299   Thumb Code    18  stm32f10x_rcc.o(.text)
    RCC_LSEConfig                            0x080022ab   Thumb Code    50  stm32f10x_rcc.o(.text)
    RCC_LSICmd                               0x080022dd   Thumb Code     6  stm32f10x_rcc.o(.text)
    RCC_RTCCLKConfig                         0x080022e3   Thumb Code    12  stm32f10x_rcc.o(.text)
    RCC_RTCCLKCmd                            0x080022ef   Thumb Code     8  stm32f10x_rcc.o(.text)
    RCC_GetClocksFreq                        0x080022f7   Thumb Code   192  stm32f10x_rcc.o(.text)
    RCC_AHBPeriphClockCmd                    0x080023b7   Thumb Code    26  stm32f10x_rcc.o(.text)
    RCC_APB2PeriphClockCmd                   0x080023d1   Thumb Code    26  stm32f10x_rcc.o(.text)
    RCC_APB1PeriphClockCmd                   0x080023eb   Thumb Code    26  stm32f10x_rcc.o(.text)
    RCC_APB2PeriphResetCmd                   0x08002405   Thumb Code    26  stm32f10x_rcc.o(.text)
    RCC_APB1PeriphResetCmd                   0x0800241f   Thumb Code    26  stm32f10x_rcc.o(.text)
    RCC_BackupResetCmd                       0x08002439   Thumb Code     8  stm32f10x_rcc.o(.text)
    RCC_ClockSecuritySystemCmd               0x08002441   Thumb Code     6  stm32f10x_rcc.o(.text)
    RCC_MCOConfig                            0x08002447   Thumb Code     6  stm32f10x_rcc.o(.text)
    RCC_ClearFlag                            0x0800244d   Thumb Code    14  stm32f10x_rcc.o(.text)
    RCC_GetITStatus                          0x0800245b   Thumb Code    20  stm32f10x_rcc.o(.text)
    RCC_ClearITPendingBit                    0x0800246f   Thumb Code     6  stm32f10x_rcc.o(.text)
    SPI_I2S_DeInit                           0x08002499   Thumb Code    76  stm32f10x_spi.o(.text)
    SPI_Init                                 0x080024e5   Thumb Code    60  stm32f10x_spi.o(.text)
    I2S_Init                                 0x08002521   Thumb Code   226  stm32f10x_spi.o(.text)
    SPI_StructInit                           0x08002603   Thumb Code    24  stm32f10x_spi.o(.text)
    I2S_StructInit                           0x0800261b   Thumb Code    20  stm32f10x_spi.o(.text)
    SPI_Cmd                                  0x0800262f   Thumb Code    24  stm32f10x_spi.o(.text)
    I2S_Cmd                                  0x08002647   Thumb Code    24  stm32f10x_spi.o(.text)
    SPI_I2S_ITConfig                         0x0800265f   Thumb Code    32  stm32f10x_spi.o(.text)
    SPI_I2S_DMACmd                           0x0800267f   Thumb Code    18  stm32f10x_spi.o(.text)
    SPI_I2S_SendData                         0x08002691   Thumb Code     4  stm32f10x_spi.o(.text)
    SPI_I2S_ReceiveData                      0x08002695   Thumb Code     6  stm32f10x_spi.o(.text)
    SPI_NSSInternalSoftwareConfig            0x0800269b   Thumb Code    30  stm32f10x_spi.o(.text)
    SPI_SSOutputCmd                          0x080026b9   Thumb Code    24  stm32f10x_spi.o(.text)
    SPI_DataSizeConfig                       0x080026d1   Thumb Code    18  stm32f10x_spi.o(.text)
    SPI_TransmitCRC                          0x080026e3   Thumb Code    10  stm32f10x_spi.o(.text)
    SPI_CalculateCRC                         0x080026ed   Thumb Code    24  stm32f10x_spi.o(.text)
    SPI_GetCRC                               0x08002705   Thumb Code    16  stm32f10x_spi.o(.text)
    SPI_GetCRCPolynomial                     0x08002715   Thumb Code     6  stm32f10x_spi.o(.text)
    SPI_BiDirectionalLineConfig              0x0800271b   Thumb Code    28  stm32f10x_spi.o(.text)
    SPI_I2S_GetFlagStatus                    0x08002737   Thumb Code    18  stm32f10x_spi.o(.text)
    SPI_I2S_ClearFlag                        0x08002749   Thumb Code     6  stm32f10x_spi.o(.text)
    SPI_I2S_GetITStatus                      0x0800274f   Thumb Code    52  stm32f10x_spi.o(.text)
    SPI_I2S_ClearITPendingBit                0x08002783   Thumb Code    20  stm32f10x_spi.o(.text)
    __aeabi_memset                           0x080027a5   Thumb Code    14  memseta.o(.text)
    __aeabi_memset4                          0x080027a5   Thumb Code     0  memseta.o(.text)
    __aeabi_memset8                          0x080027a5   Thumb Code     0  memseta.o(.text)
    __aeabi_memclr                           0x080027b3   Thumb Code     4  memseta.o(.text)
    __aeabi_memclr4                          0x080027b3   Thumb Code     0  memseta.o(.text)
    __aeabi_memclr8                          0x080027b3   Thumb Code     0  memseta.o(.text)
    _memset$wrapper                          0x080027b7   Thumb Code    18  memseta.o(.text)
    __scatterload                            0x080027c9   Thumb Code    28  init.o(.text)
    __scatterload_rt2                        0x080027c9   Thumb Code     0  init.o(.text)
    __scatterload_copy                       0x080027ed   Thumb Code    14  handlers.o(i.__scatterload_copy)
    __scatterload_null                       0x080027fb   Thumb Code     2  handlers.o(i.__scatterload_null)
    __scatterload_zeroinit                   0x080027fd   Thumb Code    14  handlers.o(i.__scatterload_zeroinit)
    F6x8                                     0x0800280a   Data         760  gui.o(.constdata)
    F8X16                                    0x08002b02   Data        1520  gui.o(.constdata)
    cfont16                                  0x080030f2   Data        1224  gui.o(.constdata)
    cfont24                                  0x080035ba   Data         444  gui.o(.constdata)
    cfont32                                  0x08003776   Data         780  gui.o(.constdata)
    Region$$Table$$Base                      0x08003a84   Number         0  anon$$obj.o(Region$$Table)
    Region$$Table$$Limit                     0x08003aa4   Number         0  anon$$obj.o(Region$$Table)
    CT_data                                  0x20000000   Data           8  main.o(.data)
    c1                                       0x20000008   Data           4  main.o(.data)
    t1                                       0x2000000c   Data           4  main.o(.data)
    SystemCoreClock                          0x20000010   Data           4  system_stm32f10x.o(.data)
    AHBPrescTable                            0x20000014   Data          16  system_stm32f10x.o(.data)
    temp                                     0x2000003c   Data          10  main.o(.bss)
    hum                                      0x20000046   Data          10  main.o(.bss)
    __initial_sp                             0x20000850   Data           0  startup_stm32f10x_hd.o(STACK)



==============================================================================

Memory Map of the image

  Image Entry point : 0x08000131

  Load Region LR_IROM1 (Base: 0x08000000, Size: 0x00003ae0, Max: 0x00080000, ABSOLUTE)

    Execution Region ER_IROM1 (Exec base: 0x08000000, Load base: 0x08000000, Size: 0x00003aa4, Max: 0x00080000, ABSOLUTE)

    Exec Addr    Load Addr    Size         Type   Attr      Idx    E Section Name        Object

    0x08000000   0x08000000   0x00000130   Data   RO          381    RESET               startup_stm32f10x_hd.o
    0x08000130   0x08000130   0x00000000   Code   RO          436  * .ARM.Collect$$$$00000000  mc_w.l(entry.o)
    0x08000130   0x08000130   0x00000004   Code   RO          444    .ARM.Collect$$$$00000001  mc_w.l(entry2.o)
    0x08000134   0x08000134   0x00000004   Code   RO          447    .ARM.Collect$$$$00000004  mc_w.l(entry5.o)
    0x08000138   0x08000138   0x00000000   Code   RO          449    .ARM.Collect$$$$00000008  mc_w.l(entry7b.o)
    0x08000138   0x08000138   0x00000000   Code   RO          451    .ARM.Collect$$$$0000000A  mc_w.l(entry8b.o)
    0x08000138   0x08000138   0x00000008   Code   RO          452    .ARM.Collect$$$$0000000B  mc_w.l(entry9a.o)
    0x08000140   0x08000140   0x00000000   Code   RO          454    .ARM.Collect$$$$0000000D  mc_w.l(entry10a.o)
    0x08000140   0x08000140   0x00000000   Code   RO          456    .ARM.Collect$$$$0000000F  mc_w.l(entry11a.o)
    0x08000140   0x08000140   0x00000004   Code   RO          445    .ARM.Collect$$$$00002712  mc_w.l(entry2.o)
    0x08000144   0x08000144   0x0000029c   Code   RO            1    .text               main.o
    0x080003e0   0x080003e0   0x0000001a   Code   RO          123    .text               stm32f10x_it.o
    0x080003fa   0x080003fa   0x00000002   PAD
    0x080003fc   0x080003fc   0x000001e0   Code   RO          221    .text               system_stm32f10x.o
    0x080005dc   0x080005dc   0x00000b68   Code   RO          239    .text               gui.o
    0x08001144   0x08001144   0x000002d8   Code   RO          285    .text               oled.o
    0x0800141c   0x0800141c   0x000000e8   Code   RO          314    .text               spi.o
    0x08001504   0x08001504   0x000006be   Code   RO          326    .text               aht20-21_demo_v1_3.o
    0x08001bc2   0x08001bc2   0x00000002   PAD
    0x08001bc4   0x08001bc4   0x000000d4   Code   RO          338    .text               delay.o
    0x08001c98   0x08001c98   0x00000024   Code   RO          382    .text               startup_stm32f10x_hd.o
    0x08001cbc   0x08001cbc   0x000000dc   Code   RO          386    .text               misc.o
    0x08001d98   0x08001d98   0x0000035c   Code   RO          398    .text               stm32f10x_gpio.o
    0x080020f4   0x080020f4   0x000003a4   Code   RO          410    .text               stm32f10x_rcc.o
    0x08002498   0x08002498   0x0000030c   Code   RO          424    .text               stm32f10x_spi.o
    0x080027a4   0x080027a4   0x00000024   Code   RO          442    .text               mc_w.l(memseta.o)
    0x080027c8   0x080027c8   0x00000024   Code   RO          458    .text               mc_w.l(init.o)
    0x080027ec   0x080027ec   0x0000000e   Code   RO          462    i.__scatterload_copy  mc_w.l(handlers.o)
    0x080027fa   0x080027fa   0x00000002   Code   RO          463    i.__scatterload_null  mc_w.l(handlers.o)
    0x080027fc   0x080027fc   0x0000000e   Code   RO          464    i.__scatterload_zeroinit  mc_w.l(handlers.o)
    0x0800280a   0x0800280a   0x00001278   Data   RO          240    .constdata          gui.o
    0x08003a82   0x08003a82   0x00000002   PAD
    0x08003a84   0x08003a84   0x00000020   Data   RO          460    Region$$Table       anon$$obj.o


    Execution Region RW_IRAM1 (Exec base: 0x20000000, Load base: 0x08003aa4, Size: 0x00000850, Max: 0x00010000, ABSOLUTE)

    Exec Addr    Load Addr    Size         Type   Attr      Idx    E Section Name        Object

    0x20000000   0x08003aa4   0x00000010   Data   RW            3    .data               main.o
    0x20000010   0x08003ab4   0x00000014   Data   RW          222    .data               system_stm32f10x.o
    0x20000024   0x08003ac8   0x00000004   Data   RW          339    .data               delay.o
    0x20000028   0x08003acc   0x00000014   Data   RW          411    .data               stm32f10x_rcc.o
    0x2000003c        -       0x00000014   Zero   RW            2    .bss                main.o
    0x20000050        -       0x00000400   Zero   RW          286    .bss                oled.o
    0x20000450        -       0x00000400   Zero   RW          379    STACK               startup_stm32f10x_hd.o


==============================================================================

Image component sizes


      Code (inc. data)   RO Data    RW Data    ZI Data      Debug   Object Name

      1726          4          0          0          0       6591   aht20-21_demo_v1_3.o
       212         18          0          4          0       1123   delay.o
      2920         22       4728          0          0      11260   gui.o
       668        104          0         16         20     217735   main.o
       220         22          0          0          0       1881   misc.o
       728         12          0          0       1024       3028   oled.o
       232         10          0          0          0       1431   spi.o
        36          8        304          0       1024        828   startup_stm32f10x_hd.o
       860         38          0          0          0       5813   stm32f10x_gpio.o
        26          0          0          0          0     230242   stm32f10x_it.o
       932         36          0         20          0       9032   stm32f10x_rcc.o
       780         14          0          0          0       6694   stm32f10x_spi.o
         0          0          0          0          0         32   sys.o
       480         38          0         20          0       1911   system_stm32f10x.o

    ----------------------------------------------------------------------
      9824        326       5066         60       2068     497601   Object Totals
         0          0         32          0          0          0   (incl. Generated)
         4          0          2          0          0          0   (incl. Padding)

    ----------------------------------------------------------------------

      Code (inc. data)   RO Data    RW Data    ZI Data      Debug   Library Member Name

         0          0          0          0          0          0   entry.o
         0          0          0          0          0          0   entry10a.o
         0          0          0          0          0          0   entry11a.o
         8          4          0          0          0          0   entry2.o
         4          0          0          0          0          0   entry5.o
         0          0          0          0          0          0   entry7b.o
         0          0          0          0          0          0   entry8b.o
         8          4          0          0          0          0   entry9a.o
        30          0          0          0          0          0   handlers.o
        36          8          0          0          0         68   init.o
        36          0          0          0          0        108   memseta.o

    ----------------------------------------------------------------------
       122         16          0          0          0        176   Library Totals
         0          0          0          0          0          0   (incl. Padding)

    ----------------------------------------------------------------------

      Code (inc. data)   RO Data    RW Data    ZI Data      Debug   Library Name

       122         16          0          0          0        176   mc_w.l

    ----------------------------------------------------------------------
       122         16          0          0          0        176   Library Totals

    ----------------------------------------------------------------------

==============================================================================


      Code (inc. data)   RO Data    RW Data    ZI Data      Debug   

      9946        342       5066         60       2068     497097   Grand Totals
      9946        342       5066         60       2068     497097   ELF Image Totals
      9946        342       5066         60          0          0   ROM Totals

==============================================================================

    Total RO  Size (Code + RO Data)                15012 (  14.66kB)
    Total RW  Size (RW Data + ZI Data)              2128 (   2.08kB)
    Total ROM Size (Code + RO Data + RW Data)      15072 (  14.72kB)

==============================================================================

