:020000040800F2
:1000000050080020991C0008E1030008E3030008E1
:10001000E7030008EB030008EF03000800000000FE
:10002000000000000000000000000000F3030008D2
:10003000F503000800000000F7030008F9030008BA
:10004000B31C0008B31C0008B31C0008B31C000854
:10005000B31C0008B31C0008B31C0008B31C000844
:10006000B31C0008B31C0008B31C0008B31C000834
:10007000B31C0008B31C0008B31C0008B31C000824
:10008000B31C0008B31C0008B31C0008B31C000814
:10009000B31C0008B31C0008B31C0008B31C000804
:1000A000B31C0008B31C0008B31C0008B31C0008F4
:1000B000B31C0008B31C0008B31C0008B31C0008E4
:1000C000B31C0008B31C0008B31C0008B31C0008D4
:1000D000B31C0008B31C0008B31C0008B31C0008C4
:1000E000B31C0008B31C0008B31C0008B31C0008B4
:1000F000B31C0008B31C0008B31C0008B31C0008A4
:10010000B31C0008B31C0008B31C0008B31C000893
:10011000B31C0008B31C0008B31C0008B31C000883
:10012000B31C0008B31C0008B31C0008B31C000873
:10013000DFF80CD002F048FB0048004759030008E4
:100140005008002008B50121102002F041F94FF4B9
:100150000050ADF8000010208DF8030002208DF84B
:1001600002006946844801F077FE4FF4005182484E
:1001700001F021FF08BD08B5012080A310221C2139
:1001800000900F2000F050FF012010237DA21C21C1
:1001900000902F2000F039FD012010237A4A1C2105
:1001A00000903E2000F031FD012078A310221C2198
:1001B0000090602000F038FF012075A3102230214C
:1001C00000900F2000F030FF012010236DA230219D
:1001D00000902F2000F019FD012010236E4A3021DD
:1001E00000903E2000F011FD08BD10B56B4801F0F5
:1001F00058FB6A4800684FF47A714843000D68491B
:100200000860664840684FF4FA6148438910C1EBC2
:1002100010506449086008460068642190FBF1F0C2
:100220003030594908705F4800680A2190FBF1F0AE
:1002300090FBF1F201FB12003030534948702E2040
:100240008870584800680A2190FBF1F201FB120007
:1002500030304D49C8700020087151480068642151
:1002600090FBF1F030304C4908704D4800680A218D
:1002700090FBF1F090FBF1F201FB120030304649A7
:1002800048702E208870464800680A2190FBF1F2E1
:1002900001FB120030304049C87020200871252031
:1002A00048710020887110BD08B5FFF74BFF01F0C1
:1002B00089FC01F03EF8002000F0F9FF01203AA38C
:1002C0001022002100900A2000F0AEFE0120102331
:1002D00039A2182100900A2000F097FC01203AA3CF
:1002E0001022302100901E2000F09EFE4FF47A7004
:1002F00001F03EF901F0CAFB4FF47A7001F038F9D1
:10030000002000F0D4FF00212E2000F01BFF002170
:10031000272000F017FF0021084600F013FF0021FE
:10032000084600F00FFF0021072000F00BFF00211E
:10033000022000F007FF0021084600F003FF002123
:10034000FF2000F0FFFE012021A3102200210090D9
:100350000A2000F069FE08BDFFF7A6FF0BE0FFF7DB
:1003600044FFFFF708FF00212F2000F0EBFE40F6CE
:100370001C4001F0FDF8F2E700100140CEC2B6C803
:10038000000000003A0000003C000020A1E6000050
:10039000CAAAB6C8000000004600002000000020E5
:1003A000080000200C000020D6D8C7ECBDBBCDA8AB
:1003B000B4F3D1A70000000036333139303730367E
:1003C0003035323000000000BBB6D3ADC4E30000CE
:1003D000D7EDD2E2D8BCC7A7B2E3C3CE000000007D
:1003E000704700BFFEE700BFFEE700BFFEE700BFAB
:1003F000FEE7704770477047704700000CB500205B
:10040000019000906C48006840F480306A490860B0
:1004100000BF6948006800F4003000900198401C5B
:100420000190009818B90198B0F5A06FF1D1624819
:10043000006800F4003010B10120009001E00020BD
:1004400000900098012843D15C48006840F01000FB
:100450005A4908600846006820F003000860084612
:10046000006840F002000860534840685249486004
:100470000846406848600846406840F4806048602C
:100480000846406820F47C1048600846406840F404
:10049000E81048600846006840F08070086000BFBF
:1004A0004548006800F000700028F9D042484068D4
:1004B00020F00300404948600846406840F00200D0
:1004C000486000BF3C48406800F00C000828F9D1A3
:1004D0000CBD10B5FFF792FF10BD10B5364800688F
:1004E00040F001003449086008464068344908403B
:1004F0003149486008460068324908402E49086082
:100500000846006820F4802008600846406820F40F
:10051000FE0048604FF41F008860FFF7DAFF4FF0DD
:1005200000602949086010BD10B50021002000229C
:10053000214B5B6803F00C0121B1042906D0082986
:1005400028D107E0214B224C236027E01F4B204C91
:10055000236023E0184B5B6803F47010164B5B6854
:1005600003F48032022303EB904022B9194B43433A
:10057000174C23600DE0104B5B6803F4003323B18C
:10058000144B4343124C236003E0104B4343104C85
:10059000236003E00D4B0E4C236000BF00BF064BF1
:1005A0005B68C3F303130C4CE15C094B1B68CB4045
:1005B000074C236010BD00000010024000200240E4
:1005C0000000FFF8FFFFF6FE08ED00E000127A00E1
:1005D0001000002000093D001400002070B5044602
:1005E0000D46164632462946204600F001FE00F030
:1005F0003CFE70BD2DE9F05F04460D4690469946DD
:10060000A8EB0400401C00F0FF0AA9EB0500401C09
:1006100000F0FF0B00260EE0002708E0AA19D1B277
:10062000E219D0B20A9A00F0E3FD781CC7B2574530
:10063000F4DB701CC6B25E45EEDB00F016FEBDE8D2
:10064000F09F2DE9FF4F85B081468A460020039038
:1006500083460798A0EB09050898A0EB0A06CDF899
:100660000890CDF804A0002D01DD012705E00DB9AB
:10067000002702E04FF0FF376D42002E02DD4FF001
:10068000010806E016B94FF0000802E04FF0FF380D
:100690007642B54201DD2C4600E03446002004904D
:1006A0001EE0019AD1B2029AD0B2129A00F0A0FDD7
:1006B000039828440390B3440398A04205DD0398AF
:1006C000001B0390029838440290A34504DDABEB75
:1006D000040B0198404401900498401C80B204909F
:1006E000611C04988842DCDD00F0BFFD09B0BDE864
:1006F000F08F2DE9F84305460E4617469846089CAC
:1007000033463A46314628460094FFF79AFF43465F
:100710002A46314628460094FFF793FF43463A465F
:10072000414628460094FFF78CFF43463A4631463F
:1007300038460094FFF785FFBDE8F8832DE9F843BC
:1007400004460D4616461F46DDF820803B463246DD
:1007500029462046CDF80080FFF74CFFBDE8F8831E
:100760002DE9F04104460D4616461F46DDF8188077
:10077000EA19D1B2A219D0B2424600F039FDEA1905
:10078000D1B2A21BD0B2424600F032FDEA1BD1B278
:10079000A219D0B2424600F02BFDEA1BD1B2A21B37
:1007A000D0B2424600F024FDAA19D1B2E219D0B26B
:1007B000424600F01DFDAA19D1B2E21BD0B242465A
:1007C00000F016FDAA1BD1B2E219D0B2424600F0E9
:1007D0000FFDAA1BD1B2E21BD0B2424600F008FDC9
:1007E000BDE8F0812DE9F84F81468A4690461E46C5
:1007F000002435467000C0F1030716E0EBB2E2B208
:1008000051464846CDF80080FFF7AAFF002F04DAD2
:10081000042000FB0470871D06E0601B042101FB1F
:10082000007000F10A076D1E641CAC42E6DD00F0AA
:100830001CFDBDE8F88F2DE9F84F82468B469146A6
:100840001E46002435467000C0F103081DE027460F
:1008500008E0FBB2E2B259465046CDF80090FFF7EF
:100860007FFF7F1CAF42F4DDB8F1000F05DA0420F2
:1008700000FB048000F1060806E0601B042101FB78
:10088000008000F10A086D1E641CAC42DFDD00F040
:10089000ECFCBDE8F88F2DE9F84F05460E461746EB
:1008A0009846DDE90A9A0C9C43463A46314628466A
:1008B0000094FFF7C6FE53464A4641463846009428
:1008C000FFF7BFFE33462A46514648460094FFF7DD
:1008D000B8FEBDE8F88F02780B7803700A70704795
:1008E0002DE9F04105460E461746984600242C4651
:1008F00006E042463946204600F07AFC601CC4B24D
:10090000B442F6DDBDE8F0812DE9FF4F85B0002649
:1009100000279DF818009DF82010884207DD08A9DF
:1009200006A8FFF7D8FF07A905A8FFF7D4FF9DF891
:1009300020009DF84C10884207DD08A913A8FFF796
:10094000CAFF07A912A8FFF7C6FF9DF818009DF877
:100950002010884207DD08A906A8FFF7BCFF07A9F9
:1009600005A8FFF7B8FF9DF818009DF84C108842C5
:1009700035D19DF81400039004909DF81C009DF85B
:100980001010884203DA9DF81C00049008E09DF8DE
:100990001C009DF80C10884202DD9DF81C0003909D
:1009A0009DF848009DF81010884203DA9DF8480031
:1009B000049008E09DF848009DF80C10884202DD84
:1009C0009DF8480003909DF818209DF80C109DF8A4
:1009D0001000149BFFF784FF09B0BDE8F08F9DF86D
:1009E0001C009DF81410A0EB010B9DF820009DF851
:1009F0001810401A02909DF848009DF81410451AEE
:100A00009DF84C009DF81810A0EB01099DF84800D6
:100A10009DF81C10A0EB010A9DF84C009DF82010D9
:100A2000401A01909DF820009DF84C10884202D198
:100A30009DF8208004E09DF82000401E00F0FF0893
:100A40009DF8184024E0029896FBF0F09DF81410F1
:100A50000844C0B2049097FBF9F09DF814100844C4
:100A6000C0B203905E442F449DF810009DF80C1016
:100A7000884203DD03A904A8FFF72DFF22469DF855
:100A80000C109DF81000149BFFF72AFF601CC4B2E5
:100A90004445D8DD9DF82000201A00FB0AF69DF899
:100AA0001800201A00FB05F724E0019896FBF0F0EF
:100AB0009DF81C100844C0B2049097FBF9F09DF813
:100AC00014100844C0B2039056442F449DF81000FF
:100AD0009DF80C10884203DD03A904A8FFF7FBFE74
:100AE00022469DF80C109DF81000149BFFF7F8FEAD
:100AF000601CC4B29DF84C008442D6DD00F0B5FB0A
:100B000000BF69E72DE9F84F06460F469246994621
:100B1000DDF828B04FF0000800240025AAF12000DD
:100B200000F0FF087F2E02DD0026B81CC7B2B9F125
:100B3000100F30D100242BE0BBF1000F05D004EBE7
:100B40000810F849085C009006E004EB0810F5492D
:100B5000085CC043C0B20090002515E08020284109
:100B60000099084038B13A19D1B27219D0B20122B5
:100B700000F03EFB06E03A19D1B27219D0B2002261
:100B800000F036FB681CC5B2082DE7DB601CC4B260
:100B9000102CD1DB35E0B9F1080F30D100242BE067
:100BA000BBF1000F05D0E04800EBC800005D0090ED
:100BB00006E0DD4800EBC800005DC043C0B2009015
:100BC000002515E0802028410099084038B13A19E5
:100BD000D1B27219D0B2012200F00AFB06E03A1934
:100BE000D1B27219D0B2002200F002FB681CC5B26B
:100BF000082DE7DB601CC4B2082CD1DB01E0BDE8A6
:100C0000F88F00F032FB00BFF9E72DE9F84F0546F9
:100C1000894616461C46DDF828A00027102C05D171
:100C2000204604EBD071C1F347080BE0082C07D134
:100C3000204604EBD0714910891C01F0FF0801E047
:100C4000BDE8F88F13E0CDF800A0F25D23464946D9
:100C50002846FFF757FF05EB0800C5B2782D04DDE5
:100C6000002509EB040000F0FF09781CC7B2F05D15
:100C70000028E8D100BFE3E710B50246012000E0FC
:100C800050430B1EA1F10104E1B2F9D110BD2DE9D1
:100C9000FF4F83B0804692461E46DDE9104B002090
:100CA0000290102C05D1204604EBD071C1F3470708
:100CB0000BE0082C06D1204604EBD0714910891CAA
:100CC000CFB202E007B0BDE8F08F002530E0701B26
:100CD000401EC1B20A20FFF7CFFFBAFBF0F00A2195
:100CE000B0FBF1F201FB1209029890B9701EA84204
:100CF0000FDDB9F1000F0AD107FB0581C8B2234609
:100D00002022CDF800B00499FFF7FCFE0EE0012090
:100D1000029009F13001CAB207FB0581C8B223462F
:100D2000CDF800B00499FFF7EDFE00BF681CC5B216
:100D3000B542CCDB00BFC5E72DE9FF4F83B080464D
:100D40008946924624200190002562E005EB0510BB
:100D5000764911F810009AF80010884257D105EB37
:100D60000510724901EB400040789AF80110884262
:100D70004DD1002448E0069840B105EB05106B49C1
:100D800001EB4000801C005D029009E005EB0510BE
:100D9000664901EB4000801C005DC043C0B2029078
:100DA00000262DE0802030410299084098B1274666
:100DB00004EBD77209EB6202D1B2A34604EBDB72FB
:100DC0005210A4EB420208EBC2023244D0B201221C
:100DD00000F00EFA12E0274604EBD77209EB62022C
:100DE000D1B2A34604EBDB725210A4EB420208EB33
:100DF000C2023244D0B2002200F0FAF9701CC6B22E
:100E0000082ECFDB601CC4B2202CB4DB04E0681CCD
:100E1000C5B20198854299DB00BF00F026FA07B001
:100E2000BDE8F08F2DE9FE4F0746884691469B4668
:100E30000620029000256DE005EB850000EB4510D3
:100E40003B4911F8100099F80010884260D105EB79
:100E5000850000EB4510364901EB4000407899F8D9
:100E60000110884254D100244FE0BBF1000F0AD09A
:100E700005EB850000EB45102D4901EB4000801C7F
:100E800010F804A00BE005EB850000EB45102849A5
:100E900001EB4000801C005DC04300F0FF0A00260B
:100EA0002FE08020304100EA0A00A0B1032094FB2B
:100EB000F0F04044C0B20190032094FBF0F100FB3D
:100EC000114007EBC0003044C0B2012200900199EC
:100ED00000F08EF913E0032094FBF0F04044C0B220
:100EE0000190032094FBF0F100FB114007EBC000E0
:100EF0003044C0B200220090019900F079F9701CD2
:100F0000C6B2082ECDDB601CC4B2482CADDB04E0B9
:100F1000681CC5B2029885428EDB00BF00F0A5F9BF
:100F2000BDE8FE8F022B00080A280008F2300008F6
:100F3000BA3500082DE9FF4F83B0804689469246B6
:100F400006200190002566E005EB85107C4911F82C
:100F500010009AF8001088425BD105EB85107849A3
:100F600001EB400040789AF80110884251D10024EA
:100F70004CE0069840B105EB8510714901EB40004B
:100F8000801C005D029009E005EB85106C4901EBC7
:100F90004000801C005DC043C0B20290002731E0D9
:100FA0008020384102990840A8B12646E21704EB98
:100FB000927209EBA202D1B2A346E21704EB92723D
:100FC0009210A4EB820208EBC2023A44D0B2012292
:100FD00000F00EF914E02646E21704EB927209EBDA
:100FE000A202D1B2A346E21704EB92729210A4EBD4
:100FF000820208EBC2023A44D0B2002200F0F8F8B4
:10100000781CC7B2082FCBDB601CC4B2802CB0DBCD
:1010100004E0681CC5B20198854295DB00BF00F072
:1010200024F907B0BDE8F08F2DE9F04106460F46E0
:1010300014461D46DDF8188026E0102C06D14346E4
:101040002A4639463046FFF777FE13E0182C06D1C2
:1010500043462A4639463046FFF7E4FE0AE0202C94
:1010600006D143462A4639463046FFF763FF01E082
:10107000BDE8F0813019C6B2C4F18000B04202DA96
:1010800000263819C7B2AD1C28780028D5D100BF7A
:10109000EEE72DE9F84F8046894617469A46DDF877
:1010A00028B0002545E000243AE00B9850B1F81D27
:1010B000C11700EB5171C91005FB01411BF801106C
:1010C00000910BE0F81DC11700EB5171C91005FB31
:1010D00001411BF80110C943C9B2009100261BE071
:1010E000802030410099084050B109EB0502D1B28F
:1010F00008EBC4023244D0B2012200F079F809E0D2
:1011000009EB0502D1B208EBC4023244D0B200228E
:1011100000F06EF8701CC6B2082EE1DB601CC4B291
:10112000F81DC11700EB5171B4EBE10FBDDB681C7A
:10113000C5B25545B7DB00F098F8BDE8F88F000060
:101140007637000870B504460D462DB14FF4806126
:10115000AF4800F02EFF04E04FF48061AC4800F08F
:101160002AFF4FF40061AA4800F025FFE1B2A94828
:1011700000F054F94FF40061A54800F01AFF70BD6B
:1011800070B505460C462646E11704EB5171C910AF
:1011900001F1B0000021FFF7D5FFA91CC1F3031135
:1011A00041F010000021FFF7CDFFA91C01F00F0056
:1011B0000021FFF7C7FF70BD10B500218D20FFF79C
:1011C000C1FF00211420FFF7BDFF0021AF20FFF772
:1011D000B9FF10BD10B500218D20FFF7B3FF00212E
:1011E0001020FFF7AFFF0021AE20FFF7ABFF10BDCF
:1011F000F0B503461446E4B1CD1701EB5575ED107B
:1012000003EBC515844E755D0A46CE1701EB567685
:10121000F610A1EBC6070126BE40F6B235430846DC
:10122000CE1701EB5676F61003EBC6167A4FBD5576
:101230001AE0CD1701EB5575ED1003EBC515764E91
:10124000755D0A46CE1701EB5676F610A1EBC60780
:101250000126BE40B5430846CE1701EB5676F61080
:1012600003EBC6166C4FBD55F0BD70B500241BE0F6
:1012700004F1B0000021FFF765FF00210846FFF7E9
:1012800061FF00211020FFF75DFF002508E005EB5E
:10129000C411614A505C0121FFF754FF681CC5B2BC
:1012A000802DF4DB601CC4B2082CE1DB70BD10B5EE
:1012B000044634B1FF224FF48061574801F072FABE
:1012C00004E04FF48061544801F073FAFFF7CDFF5A
:1012D00010BD10B54FF480514D4800F06AFE6420F7
:1012E00000F0ADFC4FF48051494800F064FE6420EA
:1012F00000F0A5FC4FF48051454800F05AFE10BDA7
:1013000008B50121082001F063F84FF4E050ADF872
:10131000000010208DF8030003208DF802006946BC
:101320003B4800F099FD4FF4E051394800F041FE90
:1013300008BD10B500F096F8FFF7E2FFC82000F0F6
:101340007EFCFFF7C6FF0021AE20FFF7FBFE002169
:101350000846FFF7F7FE00211020FFF7F3FE0021FB
:101360004020FFF7EFFE0021B020FFF7EBFE002149
:101370008120FFF7E7FE0021FF20FFF7E3FE0021B9
:10138000A120FFF7DFFE0021A620FFF7DBFE0021F2
:10139000A820FFF7D7FE00213F20FFF7D3FE002152
:1013A000C820FFF7CFFE0021D320FFF7CBFE00219E
:1013B0000846FFF7C7FE0021D520FFF7C3FE002136
:1013C0008020FFF7BFFE0021D920FFF7BBFE0021E0
:1013D000F120FFF7B7FE0021DA20FFF7B3FE00216E
:1013E0001220FFF7AFFE0021DB20FFF7ABFE00214C
:1013F0003020FFF7A7FE00218D20FFF7A3FE00217C
:101400001420FFF79FFE0021AF20FFF79BFE10BDC9
:10141000000C01400038004050000020024600BF90
:10142000108900F002000028FAD0918100BF1089D5
:1014300000F001000028FAD09089C0B270470288FD
:101440004FF6C7731A400280012902D10288028038
:1014500003E0028842F020020280028842F040024B
:101460000280704700B587B00121092000F0B0FF6D
:101470004FF42040ADF8040003208DF8060018203A
:101480008DF8070001A91D4800F0E6FC4FF48040EC
:10149000ADF8040048208DF8070003208DF8060001
:1014A00001A9164800F0D8FC0121880300F09DFF37
:1014B0000020ADF808004FF48270ADF80A0000205B
:1014C000ADF80C000220ADF80E000120ADF81000C0
:1014D0004002ADF812000020ADF81400ADF816007F
:1014E0000720ADF8180002A9054800F0FBFF012114
:1014F000034801F09CF807B000BD0000000C01405B
:1015000000380040014604E0002000E0401C0228B2
:10151000FCD30A1EA1F10101F6D1704710B50446B3
:10152000A41E03E00120FFF7EDFF641E002CF9D19B
:1015300010BD00B50120FFF7E5FF0120FFF7E2FF36
:101540000120FFF7DFFF0120FFF7DCFF00BD00B542
:101550000120FFF7D7FF0120FFF7D4FF0120FFF79D
:10156000D1FF0120FFF7CEFF0120FFF7CBFF00BD29
:1015700010B5044603E04FF47A70FFF7CFFF201E4A
:10158000A4F10104F7D110BD08B510208DF80300B7
:101590008020ADF8000003208DF802006946FE4867
:1015A00000F05AFC8021FC4800F003FD08BD08B59E
:1015B00010208DF803008020ADF8000003208DF886
:1015C00002006946F44800F047FC8021F24800F030
:1015D000F2FC08BD08B504208DF803008020ADF8AA
:1015E000000003208DF802006946EB4800F034FC4F
:1015F00008BD10B54021E84800F0DBFC10BD10B577
:101600004021E54800F0D7FC10BD08B510208DF84A
:1016100003008020ADF8000003208DF80200694629
:10162000DD4800F019FC4FF40041DB4800F0C1FC3C
:1016300010208DF803004020ADF8000003208DF845
:1016400002006946D44800F007FC4FF40041D2483C
:1016500000F0AFFC08BD10B5FFF796FF0820FFF7BC
:101660005DFFFFF7C6FF0820FFF758FFFFF79FFF5A
:101670000820FFF753FFFFF7C2FF0820FFF74EFFD8
:1016800010BD2DE9F041044625468027002613E0D1
:10169000FFF7B5FFFFF74DFF07EA050010B1FFF7B1
:1016A00073FF01E0FFF783FFFFF7A3FFFFF741FFA1
:1016B0006806050E701CC6B2082EE9DBFFF79FFF17
:1016C0000820FFF72BFFFFF785FF0820FFF726FF15
:1016D000BDE8F08170B50024FFF791FFFFF77AFFB6
:1016E0000820FFF71BFF002513E0FFF782FFFFF73D
:1016F0002EFF00268021A84800F041FC00B1012601
:1017000046EA4400C4B2FFF77AFFFFF720FF681CE7
:10171000C5B2082DE9DBFFF75DFF0820FFF7FEFEED
:10172000204670BD10B50024FFF769FFFFF752FF98
:101730000820FFF7F3FEFFF75CFF0820FFF7EEFE3F
:1017400001E0601C84B28021934800F018FC08B1CD
:10175000642CF6DB642C01D1002010BDFFF74FFF95
:101760000820FFF7DBFE0120F7E710B5FFF747FF82
:101770000820FFF7D3FEFFF71AFF0820FFF7CEFE81
:10178000FFF737FF0820FFF7C9FEFFF738FF0820F3
:10179000FFF7C4FEFFF71EFF0820FFF7BFFE10BDD6
:1017A00010B5FFF72CFF0820FFF7B8FEFFF7ECFE9F
:1017B0000820FFF7B3FEFFF71CFF0820FFF7AEFE7F
:1017C000FFF71DFF0820FFF7A9FEFFF7F0FE082036
:1017D000FFF7A4FE10BD10B5FFF7E9FE0820FFF7E4
:1017E0009DFEFFF706FF0820FFF798FEFFF7CCFEEF
:1017F0000820FFF793FE10BD10B5FFF72CFF7120F6
:10180000FFF73FFFFFF78EFFFFF764FF0446FFF788
:10181000C7FFFFF7E0FF204610BD10B50024FFF71B
:10182000EBFF044604F06800082801D1012010BD38
:101830000020FCE710B5FFF70EFF7020FFF721FF37
:10184000FFF770FFAC20FFF71CFFFFF76BFF3320A3
:10185000FFF717FFFFF766FF0020FFF712FFFFF704
:1018600061FFFFF7B8FF10BD30B502460B46FF2001
:10187000002113E0555C684008240BE000F080056F
:1018800025B1312585EA4005E8B201E04506280E7C
:10189000651EECB2002CF1DC4D1CE9B29942E9DB8B
:1018A00030BD70B586B005460020059004900390C9
:1018B00002900190009000240026FFF7BBFF50200B
:1018C000FFF756FE00BF09E040F2E450FFF726FEA6
:1018D0003046711C8EB2642800DB05E0FFF78CFFF8
:1018E00000F080008028EFD000BFFFF7B4FE712029
:1018F000FFF7C7FEFFF716FFFFF7ECFE0590FFF7B7
:1019000034FFFFF7E7FE0490FFF72FFFFFF7E2FE3B
:101910000390FFF72AFFFFF7DDFE0290FFF725FF98
:10192000FFF7D8FE0190FFF720FFFFF7D3FE0090EE
:10193000FFF736FFFFF74FFF9DF81000204304022A
:101940009DF80C00204304029DF80800044324097C
:101950002C6000249DF80800204304029DF8040038
:10196000204304029DF800000443C4F313046C6098
:1019700006B070BD70B58AB0054600200990089089
:101980000790069005900490039000240026019093
:101990000290FFF74FFF01E0000C01405020FFF7DD
:1019A000E7FD00BF09E040F2E450FFF7B7FD304625
:1019B000711C8EB2642800DB05E0FFF71DFF00F00C
:1019C00080008028EFD000BFFFF745FE7120FFF7B1
:1019D00058FEFFF7A7FEFFF77DFE09908DF8040083
:1019E000FFF7C3FEFFF776FE08908DF80500FFF7BE
:1019F000BCFEFFF76FFE07908DF80600FFF7B5FEFF
:101A0000FFF768FE06908DF80700FFF7AEFEFFF7C0
:101A100061FE05908DF80800FFF7A7FEFFF75AFE5C
:101A200004908DF80900FFF7A0FEFFF753FE039026
:101A3000FFF7B6FEFFF7CFFE062101A8FFF714FF60
:101A40009DF80C1088421CD19DF820002043040210
:101A50009DF81C00204304029DF81800044324094B
:101A60002C6000249DF81800204304029DF8140007
:101A7000204304029DF810000443C4F313046C6077
:101A800002E00020286068600AB070BD10B5FFF762
:101A9000BCFDFFF7E0FD7020FFF7F3FDFFF742FE0E
:101AA000A820FFF7EEFDFFF73DFE0020FFF7E9FD60
:101AB000FFF738FE0020FFF7E4FDFFF733FEFFF7E6
:101AC0008AFE0A20FFF754FDFFF7C5FD7020FFF7DF
:101AD000D8FDFFF727FEBE20FFF7D3FDFFF722FE5C
:101AE0000820FFF7CEFDFFF71DFE0020FFF7C9FD20
:101AF000FFF718FEFFF76FFE0A20FFF739FD10BD54
:101B00002DE9F0410446FFF7A6FD7020FFF7B9FD6F
:101B1000FFF708FE2046FFF7B4FDFFF703FE0020A5
:101B2000FFF7AFFDFFF7FEFD0020FFF7AAFDFFF76F
:101B3000F9FDFFF750FE0520FFF71AFDFFF78BFDBB
:101B40007120FFF79EFDFFF7EDFDFFF7C3FD074690
:101B5000FFF70BFEFFF7BEFD0546FFF706FEFFF79A
:101B6000B9FD0646FFF71CFEFFF735FE0A20FFF71A
:101B7000FFFCFFF770FD7020FFF783FDFFF7D2FD3C
:101B800044F0B000FFF77DFDFFF7CCFD2846FFF7DE
:101B900078FDFFF7C7FD3046FFF773FDFFF7C2FD85
:101BA000FFF719FE00250026BDE8F08110B51B20C7
:101BB000FFF7A6FF1C20FFF7A3FF1E20FFF7A0FFE3
:101BC00010BD000010B56FF0040000F0C6F82E48FC
:101BD00000682E49B0FBF1F02D49087008460078E6
:101BE00000EB4001C1EBC0104FF6FF7101EAC000ED
:101BF0002849088010BD0146254A12784A434FF013
:101C0000E0235A6100229A611A46126942F00102E9
:101C10001A6100BF4FF0E022106900F001021AB112
:101C200000F48032002AF5D04FF0E022126922F051
:101C300001024FF0E0231A6100229A6170470146C9
:101C4000144A12884A434FF0E0235A6100229A61F5
:101C50001A46126942F001021A6100BF4FF0E022F9
:101C6000106900F001021AB100F48032002AF5D0A8
:101C70004FF0E022126922F001024FF0E0231A61D6
:101C800000229A61704700001000002000127A00C4
:101C90002400002026000020064880470648004710
:101CA000FEE7FEE7FEE7FEE7FEE7FEE7FEE7FEE70C
:101CB000FEE7FEE7DB04000831010008314901437B
:101CC000314A1160704770B5002100230F22C4789B
:101CD00004B32D4C246804F4E064C4F5E064210AE4
:101CE000C1F10403CA40447804FA03F18478144033
:101CF00021430901254C0678A155047804F01F05FD
:101D00000124AC4005786D11AD0005F1E025C5F862
:101D1000004109E0047804F01F050124AC401C4D8B
:101D20000678761145F8264070BD1A4A0A400243EB
:101D3000154B1B1F1A60704739B1134A121D1268E8
:101D40000243114B1B1D1A6006E00F4A121D126858
:101D500082430D4B1B1D1A607047042808D14FF0B9
:101D6000E021096941F004014FF0E022116107E030
:101D70004FF0E021096921F004014FF0E0221161E8
:101D8000704700000000FA050CED00E000E400E000
:101D900080E100E080FFFF1F10B50446CC4884427C
:101DA00008D10121042000F02DFB0021042000F0C7
:101DB00029FB46E0C748844208D10121082000F0F1
:101DC00021FB0021082000F01DFB3AE0C2488442BC
:101DD00008D10121102000F015FB0021102000F097
:101DE00011FB2EE0BD48844208D10121202000F0E3
:101DF00009FB0021202000F005FB22E0B8488442C6
:101E000008D10121402000F0FDFA0021402000F01F
:101E1000F9FA16E0B348844208D10121802000F08D
:101E2000F1FA0021802000F0EDFA0AE0AE48844289
:101E300007D10121801500F0E5FA0021A01500F07E
:101E4000E1FA10BD10B50121084600F0DBFA0021CF
:101E5000012000F0D7FA10BD2DE9F041024600251F
:101E60000026002000230024002791F803C00CF076
:101E70000F0591F803C00CF0100CBCF1000F03D05B
:101E800091F802C04CEA050591F800C0BCF1000FC2
:101E900031D0146800202BE04FF0010C0CFA00F355
:101EA000B1F800C00CEA03069E4220D183004FF037
:101EB0000F0C0CFA03F7BC4305FA03FC4CEA0404CC
:101EC00091F803C0BCF1280F06D14FF0010C0CFAB9
:101ED00000FCC2F814C00AE091F803C0BCF1480F3E
:101EE00005D14FF0010C0CFA00FCC2F810C0401CE8
:101EF0000828D1D31460B1F800C0BCF1FF0F34DD65
:101F0000546800202EE000F1080C4FF0010808FA98
:101F10000CF3B1F800C00CEA03069E4221D1830005
:101F20004FF00F0C0CFA03F7BC4305FA03FC4CEA24
:101F3000040491F803C0BCF1280F05D100F1080C8E
:101F400008FA0CF8C2F8148091F803C0BCF1480FED
:101F500007D100F1080C4FF0010808FA0CF8C2F89C
:101F60001080401C0828CED35460BDE8F0814FF6A5
:101F7000FF710180022181700421C1707047024607
:101F8000002093680B400BB1012000E00020704757
:101F90000146886880B2704702460020D3680B4033
:101FA0000BB1012000E0002070470146C86880B2F4
:101FB000704701617047416170470AB1016100E0FB
:101FC00041617047C16070474FF480320A438261BB
:101FD0008161826182698269704702460020434BB9
:101FE00018684FF68073184040EA021008433F4BD0
:101FF000186070473E49C8617047F0B50A46002333
:1020000000240021002500F00046B6F1004F02D167
:10201000364EF16901E0354E7168C0F3034583B275
:1020200000F44016B6F5401F08D121F070612F4E24
:10203000766826F070662D4F7E6012E000F4801600
:10204000B6F5801F06D1032606FA05F4A14341F038
:10205000706106E0460D360103FA06F6B14341F021
:10206000706122B1460D360103FA06F6314300F0E5
:102070000046B6F1004F02D11C4EF16101E01B4E4B
:102080007160F0BD30B500228B071C0F0F2303FADF
:1020900004F2164B08338C1053F824309343134C3E
:1020A00008348D1044F8253023468C1053F8243022
:1020B0008C07240F00FA04F423430C4C08348D10D1
:1020C00044F8253030BD0A49DC3108607047000013
:1020D00000080140000C01400010014000140140C4
:1020E00000180140001C0140002001400000014098
:1020F00000002042DF48006840F00100DD49086030
:1021000008464068DC490840DA49486008460068EB
:10211000DA490840D74908600846006820F4802062
:1021200008600846406820F4FE0048604FF41F0035
:1021300088607047CF49096821F48031CD4A116029
:102140001146096821F480211160B0F5803F03D069
:10215000B0F5802F0ED106E0C649096841F4803100
:10216000C44A116007E0C349096841F4A021C14A8B
:10217000116000E000BF00BF704710B501460022AB
:10218000002300204A11012A02D1BA4C236806E03C
:10219000022A02D1B74C236A01E0B64C636A01F00F
:1021A0001F02012494401C400CB1012000E00020DB
:1021B00010BD38B5002000900024002500BF31205C
:1021C000FFF7DBFF05460098401C00900098B0F533
:1021D000A06F01D0002DF2D03120FFF7CEFF08B163
:1021E000012400E00024204638BD01460020A14A19
:1021F000106820F0F80040EAC10010607047A04964
:1022000008607047024600209A4B586820F47C1002
:1022100042EA01031843974B586070479849086693
:10222000704701460020934A506820F0030008439D
:10223000506070478F48406800F00C0070470146BE
:1022400000208C4A506820F0F0000843506070472E
:1022500001460020874A506820F4E060084350603F
:10226000704701460020834A506820F4605040EADD
:10227000C1005060704729B17E4A527A02437D4BBB
:102280005A7204E07B4A527A82437A4B5A72704700
:102290007B49D8310860704701460020754A506874
:1022A00020F440400843506070470021714A2032BA
:1022B0001170704A82F82010012802D004280AD137
:1022C00004E001216B4A2032117005E00521694AC2
:1022D0002032117000E000BF00BF704769490860FC
:1022E00070476449096A0143624A1162704765494F
:1022F00044390860704730B50021002200240023D3
:102300005C4D6D6805F00C0121B1042905D0082948
:1023100023D105E05C4D056022E05B4D05601FE0C8
:10232000544D6D6805F47012524D6D6805F480349B
:10233000022505EB92421CB9544D554305600BE054
:102340004C4D6D6805F400351DB1504D5543056089
:1023500002E04D4D5543056002E04B4D056000BF66
:1023600000BF444D6D6805F0F0010909484D6B5CF4
:102370000568DD4045603F4D6D6805F4E061090A80
:10238000434D6B5C4568DD4085603A4D6D6805F4F2
:102390006051C90A3E4D6B5C4568DD40C560354DF6
:1023A0006D6805F44041890B3A4D6B5CC568B5FB1F
:1023B000F3F5056130BD29B12E4A526902432D4B18
:1023C0005A6104E02B4A526982432A4B5A61704792
:1023D00029B1284A92690243264B9A6104E0254AB2
:1023E00092698243234B9A61704729B1214AD2698D
:1023F0000243204BDA6104E01E4AD26982431D4B3E
:10240000DA61704729B11B4AD2680243194BDA607E
:1024100004E0184AD2688243164BDA60704729B14B
:10242000144A12690243134B1A6104E0114A1269FB
:102430008243104B1A617047124940390860704757
:102440000F49C86470470B49C87170470948406A12
:1024500040F0807007494862704701460020054AF5
:1024600092680A400AB1012000E00020704701494B
:1024700088727047001002400000FFF8FFFFF6FE70
:10248000000042428004424200127A0000093D00EE
:10249000280000203800002010B50446BE488442C1
:1024A00008D101218014FFF7ADFF0021A014FFF730
:1024B000A9FF16E0B948844208D101210014FFF7B2
:1024C000AEFF00212014FFF7AAFF0AE0B4488442BF
:1024D00007D10121C013FFF7A2FF0021E013FFF78E
:1024E0009EFF10BD10B50022028802F441520B88F5
:1024F0004C8823438C882343CC8823430C89234373
:102500004C8923438C892343CC8923431A4302807B
:10251000838B4FF2FF74234083830B8A038210BDA9
:102520002DE9F04F85B005460C464FF00009022713
:102530004FF000084FF0010B0026B246A88B4FF277
:1025400040010840A88302202884B5F81C90A068A8
:10255000022801D100BF38E0A08810B94FF0010B6C
:1025600001E04FF0020B8D48854200D100E000BF32
:102570006846FFF7C0FEDDF800A0E088B0F5007FF8
:102580000AD14FEA1A2000EB80004000A168B0FB9E
:10259000F1F0401D86B20BE04FEA4B10BAFBF0F0B1
:1025A00000EB80004000A168B0FBF1F0401D86B256
:1025B0000A20B6FBF0F606F00108A6EB0800C0F30F
:1025C0004F074FF6FF7000EA0828022F01DBFF2FAC
:1025D00002DD02274FF00008E08840EA0800384397
:1025E0002884A088A189084361880843218808437A
:1025F00040F4006040EA0909A5F81C9005B0BDE868
:10260000F08F0021018041808180C1800181418162
:102610008181C181072101827047002101804180B1
:102620008180C1800221816000218181704721B1B8
:10263000028842F04002028004E002884FF6BF7335
:102640001A400280704721B1828B42F480628283FB
:1026500004E0828B4FF6FF331A408283704730B517
:10266000002400230C110125A540ABB21AB18588C6
:102670001D43858002E085889D43858030BD1AB169
:1026800083880B43838002E083888B438380704779
:10269000818170470146888970474FF6FF629142F9
:1026A00004D0028842F48072028004E002884FF66F
:1026B000FF631A400280704721B1828842F0040211
:1026C000828004E082884FF6FB731A408280704754
:1026D00002884FF2FF731A40028002880A43028088
:1026E0007047018841F480510180704721B1028810
:1026F00042F40052028004E002884DF6FF731A4053
:102700000280704702460020012901D0108B00E0B2
:10271000908A70470146088A7047B1F5804F04D10E
:10272000028842F48042028004E002884BF6FF7384
:102730001A40028070470246002013890B400BB1FB
:10274000012000E000207047CA4302817047F0B5C5
:102750000246002000240023002501F00F07012677
:10276000BE40B4B20B1101269E40B3B2968806EA71
:1027700003051689264016B10DB1012000E00020A6
:10278000F0BD10B5002201F00F040123A3409AB25E
:10279000D343038110BD00000030014000380040E9
:1027A000003C0040D2B201E000F8012B491EFBD2F0
:1027B00070470022F6E710B513460A46044619464C
:1027C000FFF7F0FF204610BD064C074D06E0E0681D
:1027D00040F0010394E8070098471034AC42F6D368
:1027E000FDF7AAFC843A0008A43A000802E008C8F1
:1027F000121F08C1002AFAD170477047002001E07B
:1028000001C1121F002AFBD1704700000000000028
:1028100000001010101000100000282828000000F0
:10282000000028287C287C282800103C5038147888
:102830001000004C2C1008606000304850205448B4
:10284000340030102000000000000810202020106C
:1028500008002010080808102000001054385410F8
:1028600000000010107C1010000000000000001894
:102870000810000000007C00000000000000003094
:102880003000000408102040000038444C546444D8
:102890003800103010101010380038440408102090
:1028A0007C007C08100804443800081828487C087C
:1028B00008007C40780404443800182040784444E0
:1028C00038007C0408102020200038444438444458
:1028D00038003844443C04083000003030003030C8
:1028E0000000003030003010200008102040201080
:1028F000080000007C007C00000020100804081084
:1029000020003844040810001000384404345C44AB
:102910003800102844447C444400784444784444BB
:1029200078003844404040443800704844444448AB
:1029300070007C40407840407C007C4040784040C3
:1029400040003844405C44443C004444447C44449B
:10295000440038101010101038001C0808080848EF
:10296000300044485060504844004040404040409F
:102970007C00446C545444444400444464544C44E7
:102980004400384444444444380078444478404047
:102990004000384444445448340078444478504813
:1029A00044003C404038040478007C1010101010A3
:1029B00010004444444444443800444444444428BB
:1029C00010004444445454542800444428102844DB
:1029D000440044444428101010007C040810204097
:1029E0007C003820202020203800004020100804DF
:1029F00000003808080808083800102844000000C3
:102A000000000000000000007C0020100800000012
:102A10000000000038043C443C00404058644444FA
:102A2000780000003840404438000404344C4444EA
:102A30003C00000038447C403800382420702020BE
:102A4000200000003C44443C043840405864444466
:102A50004400100030101010380008001808080852
:102A6000483040404850605048003010101010105E
:102A70003800000068545444440000005864444442
:102A8000440000003844444438000000586464584E
:102A900040400000344C4C34040400005864404072
:102AA000400000003C4038047800202070202024A2
:102AB000180000004444444C3400000044444428BE
:102AC00010000000444454542800000044281028FA
:102AD000440000004444443C043800007C081020BA
:102AE0007C0010202040202010000010101010103A
:102AF00010002010100810102000000000205408C2
:102B000000000000000000000000000000000000C5
:102B100000000000001818181818181800001818DD
:102B200000000012362448000000000000000000F1
:102B30000000000000242424FE484848FE4848487D
:102B4000000000001038545450301C1414545438F1
:102B5000101000000044A4A8A8A8541A2A2A2A4445
:102B6000000000000030484848506EA494888976E0
:102B7000000000606020C0000000000000000000B5
:102B800000000002040808101010101010080804BB
:102B90000200004020101008080808080810102043
:102BA0004000000000001010D63838D61010000089
:102BB00000000000000010101010FE101010100097
:102BC0000000000000000000000000000000606045
:102BD00020C000000000000000007F000000000096
:102BE0000000000000000000000000000000606025
:102BF0000000000001020204040808101020204018
:102C0000400000000018244242424242424224183E
:102C10000000000000107010101010101010107C38
:102C200000000000003C4242420404081020427EA2
:102C300000000000003C42420418040202424438F2
:102C40000000000000040C14242444447E04041EEC
:102C500000000000007E40404058640202424438B8
:102C600000000000001C24404058644242422418E6
:102C700000000000007E42440808101010101010E0
:102C800000000000003C4242422418244242423CE0
:102C900000000000001824424242261A0202243892
:102CA00000000000000000001818000000001818C4
:102CB00000000000000000001818000000181808AC
:102CC0003000000000020408102040201008040218
:102CD0000000000000000000FE000000FE000000F8
:102CE00000000000004020100804020408102040EA
:102CF00000000000003C424262020408080018186C
:102D0000000000000038445AAAAAAAAAB4424438D3
:102D100000000000001010182828243C444242E71C
:102D20000000000000F8444444784442424244F821
:102D300000000000003E4242808080808042443893
:102D40000000000000F8444242424242424244F83D
:102D50000000000000FE424848784848404242FED9
:102D60000000000000FE424848784848404040E0EB
:102D700000000000003C44448080808E844444383D
:102D80000000000000E7424242427E42424242E7E7
:102D900000000000007C1010101010101010107CAB
:102DA00000000000003E0808080808080808080895
:102DB00088F0000000EE444850705048484444EE0B
:102DC0000000000000E0404040404040404042FEE3
:102DD0000000000000EE6C6C6C6C5454545454D6DB
:102DE0000000000000C7626252524A4A4A4646E268
:102DF000000000000038448282828282828244384D
:102E00000000000000FC424242427C40404040E062
:102E1000000000000038448282828282B2CA4C38AC
:102E20000600000000F8444444784848444442E323
:102E300000000000003E4242402018040242427C52
:102E40000000000000FE921010101010101010383A
:102E50000000000000E74242424242424242423CFD
:102E60000000000000E742424424242828181010E3
:102E70000000000000D692929292AAAA6C444444A8
:102E80000000000000E7422424181818242442E718
:102E90000000000000EE44442828101010101038E4
:102EA00000000000007E840408081020204242FC3C
:102EB0000000001E10101010101010101010101034
:102EC0001E000000404020201010080404020202EE
:102ED0000101007808080808080808080808080818
:102EE000780000081422000000000000000000002C
:102EF00000000000000000000000000000000000D2
:102F000000FF006010000000000000000000000052
:102F10000000000000000000003C421E2242423F30
:102F20000000000000C040404058644242426458E3
:102F30000000000000000000001C22404040221C55
:102F40000000000000060202021E22424242261B2E
:102F50000000000000000000003C427E4040423C77
:102F600000000000000F1110107E10101010107CD7
:102F70000000000000000000003E444438403C4295
:102F8000423C000000C04040405C6242424242E796
:102F90000000000000303000007010101010107C95
:102FA00000000000000C0C00001C040404040404D5
:102FB0004478000000C04040404E4850684844EE0D
:102FC0000000000000701010101010101010107C85
:102FD000000000000000000000F64949494949EDA1
:102FE000000000000000000000DC6242424242E7B4
:102FF0000000000000000000003C42424242423C0F
:10300000000000000000000000D864424242645802
:1030100040E0000000000000001E22424242261A4A
:10302000020700000000000000EE3220202020F8FF
:103030000000000000000000003E42403C02427CD4
:103040000000000000000010107C10101010100C88
:10305000000000000000000000C642424242463B21
:10306000000000000000000000E7422424281010A7
:10307000000000000000000000D79292AAAA444479
:103080000000000000000000006E241818182476CC
:10309000000000000000000000E74224242818106F
:1030A00010E0000000000000007E44081010227EA6
:1030B00000000003040404040408040404040404D9
:1030C000030008080808080808080808080808088D
:1030D00008080060101010101008101010101010C8
:1030E000600000000000000020520C000000000002
:1030F0000000C8AB0100010002800440082010104D
:103100002FE8C106010001001FF0010001000100CD
:103110007FFC0000B6AF004000407C40004001FC56
:103120000044FE4420442044208448844484FD0418
:10313000450402280410B5E70100010001003FF832
:103140002108210821083FF82108210821083FF81B
:10315000210A0102010200FED7D300007FF800100F
:103160000020004001800100FFFE0100010001007D
:1031700001000100010005000200BCBC102010206D
:10318000102013FEFC201020102015FC188430881D
:10319000D04810501020105051882606CAF5010062
:1031A0000120011001107FFC03800540054009202B
:1031B0001110210841048102010001000100CFB576
:1031C00000F83F000400082010403F800100061076
:1031D00018087FFC01040920111021084504020091
:1031E000CDB310401020202023FE4840F888110461
:1031F00023FE4092F890409000901912E112420E86
:103200000400C9E8000021F0111011100110020E95
:10321000F40013F811081110109014A0184010A019
:1032200003180C06D6C37FFC44447FFC01007FFCDE
:1032300001001FF010101FF010101FF010101FF0F1
:103240001010FFFE0000D2F4020001003FF8000061
:1032500008200440FFFE00001FF0101010101FF0A7
:10326000101010101FF01010C1BF00001FF0101040
:103270001FF01010FFFE00001FF011101FF01110C2
:103280001FF001001FF001007FFCD1D5100008FEE7
:103290007F102220147C7F44445448545254445498
:1032A000485451544228442488423082C9AB080013
:1032B00008001FE020204040BFF821082108210815
:1032C0003FF820002002200220021FFE0000CDF85F
:1032D00000007FFC40044004421452944A544424A9
:1032E00044244A544A54529461044004401440080F
:1032F000C2E71080108020F821084B10FCA010407D
:1033000020A04118FA0645F801081908E10841F81B
:103310000108D7ED0040FE2029FE2800FE88AA887B
:10332000AB54AA22AE00C22083FEFE20822082205F
:10333000FE208220D2E201003FF808200440FFFE78
:1033400000001FF010101FF010101FF002005104B9
:10335000511290120FF0D8BC0000000000000000D5
:103360000000040002000100008000400040000056
:103370000000000000000000C7A7001000F83F0098
:103380000100010001000100FFFE01000100010039
:1033900001000100010001000100B2E300003FFC58
:1033A000200420043FFC200020002FFC20002000EF
:1033B0003FFE2100221044084FFC8404C3CE0820A5
:1033C00008207EFC08201C702AA8C826040007F0EC
:1033D000081014202240018002000C007000CEC2B0
:1033E000000023F81208120883F84208420813F874
:1033F000100027FCE4A424A424A424A42FFE00008D
:10340000B6C8010000803FFE222022203FFC22207F
:10341000222023E020002FF02410422041C08630DB
:10342000380EA1E6600091F4960C6C0408041800B4
:103430001800180018001800180008000C040608EE
:1034400001F00000CAAA000027F81408140887F841
:103450004408440817F811202120E92425282330A6
:1034600021202FFE0000B6C8010000803FFE222070
:1034700022203FFC2220222023E020002FF02410D5
:10348000422041C08630380ED6D8001000F83F00E8
:103490000100FFFE01001FF011101FF011101FF0BE
:1034A00001003FF80100FFFE0000C7EC01000080B2
:1034B0003FFE20002080208020802FFC20802140A3
:1034C000214022204220441088081006BDBB020083
:1034D00001000100FFFE0000101010082024482405
:1034E00004400280010002800C403030C00ECDA8A4
:1034F000000047F8201021A0004007FCE4442444C9
:1035000027FC2444244427FC2444245454088FFEDC
:10351000B4F301000100010001000100FFFE010001
:10352000010002800280044004400820101020089E
:10353000C006D1A722081108111000207FFE40020A
:1035400080041FE000400180FFFE01000100010037
:1035500005000200BBB600800080FC8004FC05046E
:1035600049082A401440104028A024A0451081108A
:10357000020804040802D3AD00002080133C12248A
:1035800002240224F2241224122412B4132812203A
:103590001020282047FE0000C4E30880088008802F
:1035A00011FE1102320434205020912811241224DB
:1035B00012221422102010A01040C8AB00000000FE
:1035C000000000380000300000680000440000C225
:1035D000000181000300C00600700FFFFE101808F4
:1035E00060180000180000180000186003FF800039
:1035F00018000018000018000018081FFFFC000049
:1036000000000000B6AF00000000000000018000D4
:1036100001000061003F810000010000010C000773
:10362000FC00310C3FC10C06010C04010C0C81089C
:103630000843081062081022082FF4083814080004
:1036400008080011180020F8004030000000B5E71D
:103650000000000000000018000010000010000032
:1036600010000FFFF008102008102008102008108C
:10367000200FFFE00810200810200810200810205C
:103680000FFFE008100000100800100800100400F0
:10369000180C000FF8000000D7D300000000000055
:1036A0000000200FFFF00000600000800003000019
:1036B000140000180000180000180C7FFFFE00180E
:1036C0000000180000180000180000180000180082
:1036D00000180000180000180000F800003000007A
:1036E0000000BCBC000000040000070180060100CF
:1036F00006010006010006C10C3F3FF0060100066E
:10370000010006010006FFF80708103E08302604F5
:10371000200604600602400602C0060180060380FF
:10372000060C601E103E0CE00C000000CAF5000004
:1037300000000000001C000019800018E000186064
:1037400000182800181C3FFFE0003C00007C00002F
:103750005A0000DA000099000119800318C0061809
:103760006004183808181E301808401800001800A7
:10377000001800000000C8AB0000000000000000BE
:1037800000030000000380000007800000068000A6
:10379000000C4000001C2000001830000030180011
:1037A00000600C0000C00700018003C0030002F8A5
:1037B00007FFFF7C080180903001800040018000FD
:1037C00000018000000181000001838001FFFFC033
:1037D00000018000000180000001800000018000E5
:1037E0000001800000018010000180381FFFFFFCF5
:1037F0000000000000000000B6AF00000000000064
:1038000000000000080000000E0000000C00000C8A
:103810000C003FFE0C0010000C0000000C0000002B
:103820000C180000FFFC00020C1800070C183FFFEA
:103830008C1801C00C1801C00C1801800818030076
:1038400008180210181806081818040C1018080692
:103850001018100630102FFB20103E0360101002CD
:10386000C0300000803000010C30000203E0000C8A
:1038700001E00010008000000000B5E7000000003B
:1038800000000000000300000003800000030000AF
:1038900000030000000300000003000007FFFFC05A
:1038A000060300C0060300C0060300C0060300C0F4
:1038B000060300C0060300C007FFFFC0060300C0E8
:1038C000060300C0060300C0060300C0060300C0D4
:1038D00007FFFFC00603008006030000000300107E
:1038E0000003000800030008000300180003801C08
:1038F0000001FFF80000000000000000D7D3000026
:1039000000000000000000000000000000C003FFF5
:10391000FFE0000001E000000300000006000000DE
:103920001800000030000001C0000001C0000001CC
:10393000800000018010000180383FFFFFFC000183
:103940008000000180000001800000018000000173
:103950008000000180000001800000018000000163
:103960008000000180000001800000018000003F15
:103970008000000700000002000000000000BCBC46
:1039800000000000000000000180080001C00E00DF
:1039900001800C0001800C0001800C0001800C00F3
:1039A00001980C183FFFFFFC01800C0001800C0007
:1039B00001800C0001800C00018C0C2001B3FFF091
:1039C00001C080600F8080603D8040C0318040C079
:1039D00001802180018021800180330001801E0050
:1039E00001800C0001801E00018037000180E3C0CF
:1039F0001F8380F8078E007C02300000000000006A
:103A0000CAF50000000000000000000100000001F5
:103A1000C00000018C0000018700000183800001CC
:103A2000818000018080000180303FFFFFF810039B
:103A3000C0000007C0000007A000000DA000000D9E
:103A40009000001990000019980000318C0000616E
:103A5000860000C1870000818380018181C003014D
:103A600080F00401807C0801803810018010600122
:103A700080000001800000018000000100000000C3
:103A800000000000A43A0008000000203C000000F4
:103A9000EC270008E03A00083C0000201408000071
:103AA000FC270008000000000000000000000000EB
:103AB0000000000000A24A04000000000000000016
:103AC00001020304060708090000000000000000CE
:103AD00001020304010203040607080902040608A0
:0400000508000131BD
:00000001FF
